:020000040800F2
:10000000A0040020450100087D2C00087F2C00087A
:10001000832C0008872C00088B2C000800000000AF
:100020000000000000000000000000008F2C00080D
:10003000912C000800000000932C0008952C00086B
:100040005F0100085F0100085F0100085F01000810
:100050005F0100085F0100085F0100085F01000800
:100060005F0100085F0100085F0100085F010008F0
:100070005F0100085F0100085F0100085F010008E0
:100080005F0100085F0100085F0100085F010008D0
:100090005F0100085F0100085F0100082F58000899
:1000A0005F0100085F0100085F0100085F010008B0
:1000B00023600008D95E00085F0100085F010008A6
:1000C0005F0100085F0100085F0100085F01000890
:1000D0005F0100089D2C00085F0100085F01000817
:1000E0006B5800085F0100085F0100085F0100080D
:1000F0005F0100085F0100085F0100085F01000860
:100100005F0100085F0100085F0100085F0100084F
:100110005F0100085F0100085F0100085F0100083F
:100120005F0100085F0100085F0100085F0100082F
:10013000DFF80CD006F01CFD00480047E52A000857
:10014000A00400200648804706480047FEE7FEE777
:10015000FEE7FEE7FEE7FEE7FEE7FEE7FEE7FEE777
:1001600047020008310100080CB500200190009002
:100170006C48006840F480306A49086000BF6948F4
:10018000006800F4003000900198401C0190009835
:1001900018B90198B0F5A06FF1D16248006800F479
:1001A000003010B10120009001E000200090009884
:1001B000012843D15C48006840F010005A490860AB
:1001C0000846006820F0030008600846006840F018
:1001D0000200086053484068524948600846406839
:1001E00048600846406840F48060486008464068BF
:1001F00020F47C1048600846406840F4E8104860ED
:100200000846006840F08070086000BF45480068FC
:1002100000F000700028F9D04248406820F0030048
:10022000404948600846406840F00200486000BF0E
:100230003C48406800F00C000828F9D10CBD10B50E
:10024000FFF792FF10BD10B53648006840F001007E
:1002500034490860084640683449084031494860DC
:1002600008460068324908402E4908600846006880
:1002700020F4802008600846406820F4FE004860B2
:100280004FF41F008860FFF7DAFF4FF00060294944
:10029000086010BD10B5002100200022214B5B68D2
:1002A00003F00C0121B1042906D0082928D107E068
:1002B000214B224C236027E01F4B204C236023E07E
:1002C000184B5B6803F47010164B5B6803F48032C4
:1002D000022303EB904022B9194B4343174C236090
:1002E0000DE0104B5B6803F4003323B1144B434320
:1002F000124C236003E0104B4343104C236003E097
:100300000D4B0E4C236000BF00BF064B5B68C3F370
:1003100003130C4CE15C094B1B68CB40074C23607A
:1003200010BD000000100240002002400000FFF855
:10033000FFFFF6FE08ED00E000127A00000000204A
:1003400000093D000400002031490143314A116099
:10035000704770B5002100230F22C47804B32D4CE0
:10036000246804F4E064C4F5E064210AC1F10403E4
:10037000CA40447804FA03F1847814402143090107
:10038000254C0678A155047804F01F050124AC40E3
:1003900005786D11AD0005F1E025C5F8004109E0D3
:1003A000047804F01F050124AC401C4D067876113A
:1003B00045F8264070BD1A4A0A400243154B1B1FE0
:1003C0001A60704739B1134A121D12680243114B6B
:1003D0001B1D1A6006E00F4A121D126882430D4B66
:1003E0001B1D1A607047042808D14FF0E0210969ED
:1003F00041F004014FF0E022116107E04FF0E021ED
:10040000096921F004014FF0E022116170470000FA
:100410000000FA050CED00E000E400E080E100E0FF
:1004200080FFFF1F10B50446FA48844208D101211D
:10043000401501F0E9F80021601501F0E5F817E03A
:10044000F548844208D10121001501F0DDF80021B2
:10045000201501F0D9F80BE0F048844208D10121C1
:10046000C80301F0D1F800214FF4004001F0CCF8AE
:1004700010BD30B50246002000235068E84C2040F3
:100480000D790C6844EA0524204350609068E54CDF
:100490002040D1E902542C434D7944EA45042043DD
:1004A0009060D06A20F470000C7C641EE4B2234398
:1004B00040EA0350D06230BD0021016001714171FA
:1004C0008160C16001210174704721B1826842F0EE
:1004D0000102826003E0826822F0010282607047BC
:1004E00021B1826842F48072826003E0826822F463
:1004F00080728260704710B50023CBB21AB1446895
:100500001C43446002E044689C43446010BD816821
:1005100041F0080181607047014600208A6802F0BE
:1005200008020AB1012000E000207047816841F014
:10053000040181607047014600208A6802F00402CD
:100540000AB1012000E00020704721B1826842F426
:10055000A002826003E0826822F4A00282607047F9
:10056000014600208A6802F480020AB1012000E0FE
:100570000020704710B50A4600210023416821F48D
:100580006041531E41EA4331416010BD21B14268D0
:1005900042F40062426003E0426822F4006242607A
:1005A0007047F0B504460D4600200021092D11DDED
:1005B000E068A5F10A0606EB4607072606FA07F1EA
:1005C0008843A5F10A0606EB460603FA06F108433E
:1005D000E0600CE0206905EB4507072606FA07F105
:1005E000884305EB450603FA06F108432061072A14
:1005F0000FDA606B561E06EB86071F2606FA07F118
:100600008843561E06EB860605FA06F1084360632A
:1006100022E00D2A0FDA206BD61F06EB86071F2675
:1006200006FA07F18843D61F06EB860605FA06F19F
:100630000843206310E0E06AA2F10D0606EB86078E
:100640001F2606FA07F18843A2F10D0606EB86067F
:1006500005FA06F10843E062F0BD21B1826842F478
:100660008012826003E0826822F480128260704708
:100670000146C86C80B2704766484C3000687047CD
:1006800021B1426842F48062426003E0426822F491
:1006900080624260704721B1426842F480524260F9
:1006A00003E0426822F48052426070470A4600210B
:1006B000816821F4E04111438160704721B1826873
:1006C00042F40042826003E0826822F400428260C9
:1006D000704721B1826842F40212826003E08268AE
:1006E00022F4021282607047014600208A6802F4F8
:1006F00000120AB1012000E000207047F0B5044666
:100700001546002000220026092911DDE068A1F12C
:100710000A0707EB470C072707FA0CF29043A1F1F1
:100720000A0707EB470703FA07F21043E0600CE003
:10073000206901EB410C072707FA0CF2904301EB0B
:10074000410703FA07F210432061A06BC0F3015682
:10075000EF1C06F1010CA7EB0C0707EB870C1F271A
:1007600007FA0CF29043EF1C06F1010CA7EB0C0703
:1007700007EB870701FA07F21043A063F0BD10B53D
:100780000A4600210023816B21F44011531E41EAE7
:100790000351816310BD08B5002300930090009BB6
:1007A0000B440093009B1A6008BD08B50246002068
:1007B0000090009201F12800009B184400900098DE
:1007C000006880B208BD0A4600214168164B1940F6
:1007D0001143416070474162826270470A460021BE
:1007E000416821F01F0111434160704740B1094940
:1007F0000831096841F40001064A0832116007E037
:1008000004490831096821F40001024A08321160E4
:10081000704700000024014000280140003C0140D6
:10082000FFFEF0FFFDF7F1FFFFFD3FFF0246002056
:1008300013680B400BB1012000E000207047CA4351
:100840000260704770B502460020002300240B129E
:100850005568CEB205EA060415681D4015B10CB105
:10086000012000E0002070BD00220A12D343036083
:1008700070470000002044490860091D0860091DF8
:100880000860091D086041483F49143108607047FD
:1008900000213D498279002A3AD00A46126803684D
:1008A0009A430B461A600A1D126803689A430B1D8F
:1008B0001A60027911440A6803681A430A60324ACE
:1008C0000832126803689A432F4B08331A601A1DC6
:1008D000126803689A432C4B0C331A604279102A31
:1008E0000ED11A1F126803681A43274B08331A6087
:1008F0001A1D126803681A43234B0C331A600DE06B
:100900002149427911440A6803681A430A6005E0E4
:10091000027911440A6803689A430A60704700210B
:10092000016001710C2141710021817170471649EC
:10093000103109680143144A1032116070470146B2
:100940000020114A143212680A400AB1012000E066
:10095000002070470C4914310860704701460020A0
:100960000022094B1B6803EA0102074B14331B6882
:100970000B4013B10AB1012000E00020704702498A
:10098000143108607047000000040140FFFF0F00B1
:1009900030B943F2DB028100A1F1C0410A6005E0F9
:1009A00043F2D2028100A1F1C0410A606FF07042AF
:1009B000411C8900A1F1C0410A608100A1F1C04140
:1009C000C1F80421704710280AD118214FF02042A5
:1009D0001166402151664FF0FC319166D16610E0FE
:1009E0001821F74A116040214FF02042C2F88410CC
:1009F0004FF0FC31F24A083211604FF02042C2F849
:100A00008C1070471820EE4920310860002009063C
:100A1000C1F8A4004FF0FC30E94928310860091DF5
:100A20000860091D08607047D0E901121143C268CF
:100A30001143026911434269114382691143C2693A
:100A40001143026A1143426A1143826A1143C26A26
:100A50001143026B114302689200A2F1C04211607F
:100A6000816808290BD101688900A1F1C04109689A
:100A700041F0400201688900A1F1C0410A60416B68
:100A80000968426B526841EA0211426B926841EA7E
:100A90000221426B928941EA0241426B128A41EA89
:100AA0000251426B127D41EA0261426B926911432D
:100AB0000268521C9200A2F1C0421160C16AB1F5F5
:100AC000804F1BD1816B0968826B526841EA021129
:100AD000826B926841EA0221826B128A41EA0251DA
:100AE000826B127D41EA0261826B92691143026856
:100AF0009200A2F1C042C2F8041107E06FF0704208
:100B000001688900A1F1C041C1F80421704730B5E6
:100B1000002100220023446844F0080485682C4327
:100B2000C5682C4305692C43456944EA4524856919
:100B300044EA4531C4692468C5696D6844EA0524FE
:100B4000C5692D8944EA0544C5692D7B44EA0562DF
:100B5000046A2468056A6D6844EA0524056A2D89DB
:100B600044EA0544056A2D7B44EA05630468102CB9
:100B700005D14FF020442166A266E36608E0904C60
:100B800021604FF02044C4F888208D4C0C34236041
:100B900030BD016841F01001426841EA422182689B
:100BA00041EA4231864A20321160C1680968C26850
:100BB000526841EA0221C268128941EA0241C268D0
:100BC000127B41EA02617E4A28321160016909689C
:100BD0000269526841EA02210269128941EA02412E
:100BE0000269127B41EA0261754A2C321160416947
:100BF00009684269526841EA02214269128941EA60
:100C000002414269127B41EA02614FF02042C2F880
:100C1000B010704700210160022141600021816015
:100C2000C160016141618161C16101624FF4805124
:100C30004162490081620021C16201630F21426B60
:100C40001160426B5160FF21426B91600F21426B3A
:100C5000D160426B1161426B51610021426B916125
:100C60000F21826B1160826B5160FF21826B91605A
:100C70000F21826BD160826B1161826B5161002107
:100C8000826B916170471021016000214160816099
:100C9000C160016141618161FC21C2691160C26969
:100CA0005160C2699160C269D160026A1160026AD2
:100CB0005160026A9160026AD16070470021016050
:100CC00041608160FC21C2681160C2685160C268E5
:100CD0009160C268D1600269116002695160026965
:100CE00091600269D1604269116042695160426954
:100CF00091604269D160704751B18200A2F1C04257
:100D0000126842F001038200A2F1C042136009E0C0
:100D10008200A2F1C04212682A4B1A408300A3F15C
:100D2000C0431A60704799B1102808D14FF0204293
:100D3000126E42F004024FF020431A661DE0204A72
:100D4000126842F004024FF02043C3F8802014E000
:100D5000102809D14FF02042126E1A4BDB1E1A40A8
:100D60004FF020431A6608E0154A1268154BDB1E47
:100D70001A404FF02043C3F88020704748B1104913
:100D80002031096841F004014FF02042C2F8A01060
:100D900009E00B49203109680A4AD21E11404FF080
:100DA0002042C2F8A0107047B9B110280CD14FF002
:100DB0002042126E42F040024FF020431A661FE0BC
:100DC000800000A0FEFF0F00724A126842F040024D
:100DD0004FF02043C3F8802012E0102808D14FF0D4
:100DE0002042126E6C4B1A404FF020431A6607E007
:100DF000684A1268684B1A404FF02043C3F88020BD
:100E0000704701460020102903D14FF02042506F57
:100E100002E0604A14321068704710B5F2B1102831
:100E200007D14FF020435B6E0B434FF020446366C5
:100E300032E0B0F5807F08D1564B1B1D1B680B4379
:100E40004FF02044C4F8843026E0524B24331B6812
:100E50000B434FF02044C4F8A4301DE0102807D104
:100E60004FF020435B6E8B434FF02044636613E0EA
:100E7000B0F5807F08D1474B1B1D1B688B434FF09B
:100E80002044C4F8843007E0424B24331B688B4372
:100E90004FF02044C4F8A43010BD10B50246002025
:100EA0000023102A03D14FF02044636E09E0B2F50D
:100EB000807F03D1374C241D236802E0354C243455
:100EC000236803EA01040CB1012000E0002010BDFA
:100ED000102807D14FF02042526E8A434FF0204332
:100EE0005A6613E0B0F5807F08D12A4A121D1268B5
:100EF0008A434FF02043C3F8842007E0254A243278
:100F000012688A434FF02043C3F8A420704770B59D
:100F100002460020002300240025102A03D14FF0B0
:100F20002046736E09E0B2F5807F03D1194E361D5D
:100F3000336802E0174E2436336803EA010403EAFB
:100F4000D10514B10DB1012000E0002070BD1028C2
:100F500008D14FF02042526E22EAD1024FF02043D6
:100F60005A6615E0B0F5807F09D10A4A121D126851
:100F700022EAD1024FF02043C3F8842008E0054A5A
:100F80002432126822EAD1024FF02043C3F8A42091
:100F900070470000800000A0BFFF0F0010B504469E
:100FA000CC48844208D10121042000F02DFB00210F
:100FB000042000F029FB46E0C748844208D1012103
:100FC000082000F021FB0021082000F01DFB3AE082
:100FD000C248844208D10121102000F015FB0021F5
:100FE000102000F011FB2EE0BD48844208D1012101
:100FF000202000F009FB0021202000F005FB22E06A
:10100000B848844208D10121402000F0FDFA0021B7
:10101000402000F0F9FA16E0B348844208D10121DB
:10102000802000F0F1FA0021802000F0EDFA0AE0C3
:10103000AE48844207D10121801500F0E5FA002175
:10104000A01500F0E1FA10BD10B50121084600F02E
:10105000DBFA0021012000F0D7FA10BD2DE9F041A4
:10106000024600250026002000230024002791F8D6
:1010700003C00CF00F0591F803C00CF0100CBCF18C
:10108000000F03D091F802C04CEA050591F800C0AA
:10109000BCF1000F31D0146800202BE04FF0010CA0
:1010A0000CFA00F3B1F800C00CEA03069E4220D10E
:1010B00083004FF00F0C0CFA03F7BC4305FA03FC56
:1010C0004CEA040491F803C0BCF1280F06D14FF09C
:1010D000010C0CFA00FCC2F814C00AE091F803C03D
:1010E000BCF1480F05D14FF0010C0CFA00FCC2F81E
:1010F00010C0401C0828D1D31460B1F800C0BCF166
:10110000FF0F34DD546800202EE000F1080C4FF092
:10111000010808FA0CF3B1F800C00CEA03069E427D
:1011200021D183004FF00F0C0CFA03F7BC4305FAF2
:1011300003FC4CEA040491F803C0BCF1280F05D16C
:1011400000F1080C08FA0CF8C2F8148091F803C0FA
:10115000BCF1480F07D100F1080C4FF0010808FA64
:101160000CF8C2F81080401C0828CED35460BDE8AB
:10117000F0814FF6FF710180022181700421C1705E
:1011800070470246002093680B400BB1012000E03D
:10119000002070470146886880B2704702460020F0
:1011A000D3680B400BB1012000E0002070470146DE
:1011B000C86880B2704701617047416170470AB1E9
:1011C000016100E041617047C16070474FF48032B7
:1011D0000A43826181618261826982697047024645
:1011E0000020434B18684FF68073184040EA021005
:1011F00008433F4B186070473E49C8617047F0B5DF
:101200000A46002300240021002500F00046B6F124
:10121000004F02D1364EF16901E0354E7168C0F3DE
:10122000034583B200F44016B6F5401F08D121F003
:1012300070612F4E766826F070662D4F7E6012E04A
:1012400000F48016B6F5801F06D1032606FA05F4D1
:10125000A14341F0706106E0460D360103FA06F63F
:10126000B14341F0706122B1460D360103FA06F632
:10127000314300F00046B6F1004F02D11C4EF1613F
:1012800001E01B4E7160F0BD30B500228B071C0FD2
:101290000F2303FA04F2164B08338C1053F8243052
:1012A0009343134C08348D1044F8253023468C109A
:1012B00053F824308C07240F00FA04F423430C4C19
:1012C00008348D1044F8253030BD0A49DC310860FF
:1012D0007047000000080140000C01400010014070
:1012E0000014014000180140001C01400020014092
:1012F0000000014000002042DF48006840F001008B
:10130000DD49086008464068DC490840DA49486021
:1013100008460068DA490840D7490860084600686E
:1013200020F4802008600846406820F4FE004860F1
:101330004FF41F0088607047CF49096821F480315D
:10134000CD4A11601146096821F480211160B0F581
:10135000803F03D0B0F5802F0ED106E0C649096862
:1013600041F48031C44A116007E0C349096841F47F
:10137000A021C14A116000E000BF00BF704710B556
:1013800001460022002300204A11012A02D1BA4C52
:10139000236806E0022A02D1B74C236A01E0B64C6A
:1013A000636A01F01F02012494401C400CB101202B
:1013B00000E0002010BD38B500200090002400257A
:1013C00000BF3120FFF7DBFF05460098401C00906E
:1013D0000098B0F5A06F01D0002DF2D03120FFF7BA
:1013E000CEFF08B1012400E00024204638BD0146AC
:1013F0000020A14A106820F0F80040EAC100106007
:101400007047A04908607047024600209A4B586810
:1014100020F47C1042EA01031843974B5860704750
:1014200098490866704701460020934A506820F0AA
:1014300003000843506070478F48406800F00C007C
:101440007047014600208C4A506820F0F0000843A5
:101450005060704701460020874A506820F4E060E1
:1014600008435060704701460020834A506820F4CA
:10147000605040EAC1005060704729B17E4A527AFC
:1014800002437D4B5A7204E07B4A527A82437A4B84
:101490005A7270477B49D831086070470146002076
:1014A000754A506820F4404008435060704700215E
:1014B000714A20321170704A82F82010012802D03F
:1014C00004280AD104E001216B4A2032117005E0A2
:1014D0000521694A2032117000E000BF00BF70474B
:1014E0006949086070476449096A0143624A1162A8
:1014F0007047654944390860704730B500210022C3
:10150000002400235C4D6D6805F00C0121B1042915
:1015100005D0082923D105E05C4D056022E05B4D34
:1015200005601FE0544D6D6805F47012524D6D68F2
:1015300005F48034022505EB92421CB9544D554305
:1015400005600BE04C4D6D6805F400351DB1504D44
:101550005543056002E04D4D5543056002E04B4D9B
:10156000056000BF00BF444D6D6805F0F00109093A
:10157000484D6B5C0568DD4045603F4D6D6805F486
:10158000E061090A434D6B5C4568DD4085603A4D7A
:101590006D6805F46051C90A3E4D6B5C4568DD40DD
:1015A000C560354D6D6805F44041890B3A4D6B5C63
:1015B000C568B5FBF3F5056130BD29B12E4A526906
:1015C00002432D4B5A6104E02B4A526982432A4B55
:1015D0005A61704729B1284A92690243264B9A61A1
:1015E00004E0254A92698243234B9A61704729B1EE
:1015F000214AD2690243204BDA6104E01E4AD269D3
:1016000082431D4BDA61704729B11B4AD2680243FD
:10161000194BDA6004E0184AD2688243164BDA604C
:10162000704729B1144A12690243134B1A6104E04E
:10163000114A12698243104B1A61704712494039AE
:10164000086070470F49C86470470B49C8717047FC
:101650000948406A40F08070074948627047014677
:101660000020054A92680A400AB1012000E00020EB
:101670007047014988727047001002400000FFF86F
:10168000FFFFF6FE000042428004424200127A0050
:1016900000093D00140000202400002010B504467D
:1016A000FE48844208D10121C014FFF7ADFF00219C
:1016B000E014FFF7A9FFC4E0B4F1804F08D1012185
:1016C0000846FFF7AEFF00210120FFF7AAFFB8E0B0
:1016D000F348844208D101210220FFF7A2FF002134
:1016E0000220FFF79EFFACE0EE48844208D10121C2
:1016F0000420FFF796FF00210420FFF792FFA0E0EF
:10170000E948844208D101210820FFF78AFF00211F
:101710000820FFF786FF94E0E448844208D10121C5
:101720001020FFF77EFF00211020FFF77AFF88E0EE
:10173000DF48844208D101212020FFF772FF0021F9
:101740002020FFF76EFF7CE0DA48844208D10121B7
:101750004014FFF759FF00216014FFF755FF70E0B8
:10176000D548844209D10121C804FFF74DFF00216B
:101770004FF40020FFF748FF63E0D048844209D1CE
:1017800001210805FFF740FF00214FF48010FFF70B
:101790003BFF56E0CA48844209D101214805FFF7C2
:1017A00033FF00214FF40010FFF72EFF49E0C5483A
:1017B000844208D101214020FFF733FF002140205F
:1017C000FFF72FFF3DE0C048844208D1012180206F
:1017D000FFF727FF00218020FFF723FF31E0BB4800
:1017E000844208D101218015FFF71BFF0021A015BD
:1017F000FFF717FF25E0B648844209D1012108040C
:10180000FFF702FF00214FF48030FFF7FDFE18E0E4
:10181000B048844209D101214804FFF7F5FE0021B8
:101820004FF40030FFF7F0FE0BE0AB48844208D1E4
:1018300001218804FFF7E8FE00214FF48020FFF724
:10184000E3FE10BD00220288944B98420ED0994BC3
:1018500098420BD0B0F1804F08D0914B984205D000
:10186000904B984202D0904B984204D14FF68F7320
:101870001A404B881A438D4B984207D08C4B9842A4
:1018800004D04FF6FF431A40CB881A4302808B885E
:1018900083850B880385814B98420BD0854B9842FA
:1018A00008D08B4B984205D08A4B984202D08A4B85
:1018B000984201D10B7A038601238382704770B569
:1018C000002400220023058C4FF6FE763540058467
:1018D000028C8388048B4FF68F752C40B51E2C40EC
:1018E0000D882C43751E2A400D892A434D882A43B2
:1018F0006A4DA8420BD06F4DA84208D0744DA84243
:1019000005D0744DA84202D0734DA84213D14FF6B2
:10191000F7752A404D892A434FF6FB752A408D887A
:101920002A434FF6FF652B404FF6FF552B408D891C
:101930002B43CD892B4383800483CD888586028405
:1019400070BD70B5002400220023058C4FF6EF76A1
:1019500035400584028C8388048B48F6FF752C4043
:101960004FF6FF452C400D884FF6FF7606EA052519
:101970002C434FF6DF752A400D8906EA05152A43E8
:101980004D8806EA05152A43444DA84202D0494D28
:10199000A8421DD14FF67F752A404D894FF6FF763C
:1019A00006EA05152A434FF6BF752A408D8806EAD8
:1019B00005152A434FF6FF352B404FF2FF752B409C
:1019C0008D8906EA85052B43CD8906EA85052B43DB
:1019D00083800483CD880587028470BD70B50024A0
:1019E00000220023058C4FF6FF6635400584028CEB
:1019F0008388848B4FF68F752C404FF6FC752C40F6
:101A00000D882C434FF6FF552A400D894FF6FF767F
:101A100006EA05252A434D8806EA05252A431F4D77
:101A2000A84202D0234DA8421DD14FF2FF752A4093
:101A30004D894FF6FF7606EA05252A434FF6FF3516
:101A40002A408D8806EA05252A434EF6FF752B406D
:101A50004DF6FF752B408D8906EA05152B43CD8980
:101A600006EA05152B4383808483CD88858702840D
:101A700070BD70B5002200230024058C4EF6FF7661
:101A800035400584038C8488828B48F6FF752A4094
:101A90004FF6FF452A400D8820E00000002C014051
:101AA0000004004000080040000C0040001000400E
:101AB0000014004000340140004C0140005001403F
:101AC0000054014000180040001C0040002000406D
:101AD0000040014000440140004801404FF6FF76BD
:101AE00006EA05252A434DF6FF752B400D8906EAC7
:101AF00005352B434D8806EA05352B43FA4DA842A0
:101B000002D0FA4DA84208D14BF6FF752C408D89C2
:101B10004FF6FF7606EA85152C4384808283CD88B4
:101B2000A0F84050038470BD828B4FF2FF331A40FF
:101B30008283828B4FF6FF7303EA01231A43828369
:101B40007047F0B50C461546002200210026078C90
:101B50004EF6FF7C07EA0C070784828B018C4FF658
:101B6000FF7707EA043640F6FF473A404FF6FF7723
:101B700007EA05273A434FF6FF7707EA03373A4368
:101B8000D94FB8420ED0D94FB8420BD0B0F1804FE8
:101B900008D0D74FB84205D0D64FB84202D0D64F62
:101BA000B84206D14DF6FF77394046F480573943A5
:101BB00005E047F6FF57394044F4805739438283A4
:101BC0000184F0BD828B4FF6F3731A408283828BBF
:101BD0000A4382837047F0B50C4615460022002167
:101BE0000026078C4FF6FF6C07EA0C070784828BF0
:101BF000018C4FF6FF7707EA04264FF60C773A4040
:101C00004FF6FF7707EA03172F433A43B64FB84220
:101C10000ED0B64FB8420BD0B0F1804F08D0B44FC1
:101C2000B84205D0B34FB84202D0B34FB84206D144
:101C30004FF6FF57394046F48077394305E04FF2BD
:101C4000FF57394044F48077394382830184F0BDE3
:101C5000028B4FF2FF331A400283028B4FF6FF7361
:101C600003EA01231A4302837047F0B50C46154678
:101C7000002200210026078C4FF6EF7C07EA0C07B4
:101C80000784028B018C4FF6FF7707EA041640F6B3
:101C9000FF473A404FF6FF7707EA03373A434FF6DC
:101CA000FF7707EA05273A438F4FB8420ED08F4F90
:101CB000B8420BD0B0F1804F08D08D4FB84205D05C
:101CC0008C4FB84202D08C4FB84206D14FF6DF7726
:101CD000394046F01007394305E04FF65F77394049
:101CE00044F01007394302830184F0BD028B4FF6A4
:101CF000F3731A400283028B0A4302837047F0B5E4
:101D00000C46154600220021068C4FF6FE773E4019
:101D10000684028B018C4FF60C7632407E1C06EA5C
:101D200003162E433243704EB0420ED06F4EB04277
:101D30000BD0B0F1804F08D06D4EB04205D06D4E43
:101D4000B04202D06C4EB04206D14FF6FD76314023
:101D500044F00106314305E04FF6F576314044F09A
:101D60000106314302830184F0BD70B505460C467F
:101D70005D4885420ED05D4885420BD0B5F1804F5D
:101D800008D05B48854205D05A48854202D05A485F
:101D9000854200D100E000BF208850B92389A28885
:101DA00061882846FFF7ABFFE1882846FFF79EFFD2
:101DB00025E0208804280AD12389A2886188284642
:101DC000FFF753FFE1882846FFF742FF17E020881E
:101DD00008280AD12389A28861882846FFF7FBFEDC
:101DE000E1882846FFF7EEFE09E02389A288618892
:101DF0002846FFF7A6FEE1882846FFF795FE70BD4E
:101E00002DE9F04105460C4600260127608808B9F7
:101E1000022600E00026A088012801D1022700E068
:101E200001272088A0B92389A28861882846FFF766
:101E300066FFE1882846FFF759FF23893A46314675
:101E40002846FFF712FFE1882846FFF701FF13E05D
:101E50002389A28861882846FFF707FFE188284682
:101E6000FFF7F6FE23893A4631462846FFF747FF3B
:101E7000E1882846FFF73AFFBDE8F0810A884B88E1
:101E80001A438B881A43CB881A430B891A434B8910
:101E90001A438B891A43A0F8442070474FF6FF710C
:101EA000818000210180C180418001727047002142
:101EB000018041808180C180018141818181C18116
:101EC0007047002101804180012181800021C18073
:101ED000018170470021018041808180C1800181A2
:101EE0004181818170470000002C01400034014095
:101EF0000004004000080040000C004021B10288AE
:101F000042F00102028004E002884FF6FE731A409C
:101F10000280704731B1B0F8442042F40042A0F88A
:101F2000442005E0B0F84420C2F30E02A0F844209B
:101F300070471AB183890B43838102E083898B4305
:101F4000838170478182704741EA0203A0F84830DC
:101F500070471AB183890B43838102E083898B43E5
:101F60008381704701894FF6F872114001817047F3
:101F70000A46002101894FF68F73194011430181F0
:101F8000704730B504460D4629462046FFF7F0FF5E
:101F9000208940F00700208130BD2DE9F041044642
:101FA0000D4616461F46602D06D13B46012231469E
:101FB0002046FFF75AFE05E03B4601223146204607
:101FC000FFF79DFE29462046FFF7D2FF208940F00B
:101FD00007002081BDE8F08130B50C460021018961
:101FE000C9B24FF6FF7505EA03251543254329437A
:101FF000018130BD2DE9F04105460E461746984651
:10200000002443463A4631462846FFF7E5FF2C892F
:102010004FF6F870044044F007044FF68F70044008
:1020200044F070042C81BDE8F081F0B504460D4603
:1020300016461F463B46324629462046FFF7CCFF50
:10204000208940F480402081F0BD01858282704764
:102050000A46002101884FF68F7319401143018011
:102060007047F0B50C4615461E460021002200239D
:102070000189028B038C4FF6F877394021434FF6E4
:10208000FC473A4040F201173A434FF6DD773B40B8
:102090004FF6FF7707EA06172F433B430181028380
:1020A0000384F0BD0A460021018B4FF68F7319405F
:1020B0001143018370470A460021018B48F6FF73E4
:1020C00019404FF6FF7303EA022319430183704757
:1020D0000A460021818B4FF68F731940114381838B
:1020E00070470A460021818B48F6FF7319404FF66E
:1020F000FF7303EA022319438183704721B10288E9
:1021000042F08002028004E002884FF67F731A409A
:102110000280704721B1828842F00402828004E08C
:1021200082884FF6FB731A408280704721B1828803
:1021300042F00802828004E082884FF6F7731A406A
:102140008280704721B1828842F00102828004E0DF
:1021500082884FF6FE731A40828070470A4600213B
:10216000018B4FF6F77319401143018370470A46FC
:102170000021018B4FF2FF7319404FF6FF7303EA02
:1021800002231943018370470A460021818B4FF6D1
:10219000F77319401143818370470A460021818BF0
:1021A0004FF2FF7319404FF6FF7303EA02231943FE
:1021B000818370470A460021018B4FF6FB7319405B
:1021C0001143018370470A460021018B4FF6FF330C
:1021D00019404FF6FF7303EA022319430183704746
:1021E0000A460021818B4FF6FB731940114381830E
:1021F00070470A460021818B4FF6FF3319404FF696
:10220000FF7303EA02231943818370470A460021C2
:10221000018B4FF67F7319401143018370470A46C3
:102220000021018BC1F30E014FF6FF7303EA022375
:102230001943018370470A460021818B4FF67F7353
:1022400019401143818370470A460021818BC1F3F5
:102250000E014FF6FF7303EA02231943818370478F
:102260000A460021018C4FF6FD7319401143018489
:1022700070470A460021018C4FF6F773194011434D
:10228000018470470A460021018C4FF6DF73194024
:102290004FF6FF7303EA02131943018470470A469D
:1022A0000021018C4FF67F7319404FF6FF7303EA4C
:1022B00002131943018470470A460021018C4FF62E
:1022C000FF5319404FF6FF7303EA022319430184B9
:1022D00070470A460021018C4FF2FF7319404FF6F8
:1022E000FF7303EA02231943018470470A46002161
:1022F000018C4DF6FF7319404FF6FF7303EA02336A
:1023000019430184704730B5002301248C40A3B2E7
:10231000048C9C430484048C02FA01F5ADB22C4376
:10232000048430BD30B5002304248C40A3B2048C57
:102330009C430484048C02FA01F5ADB22C4304845E
:1023400030BD70B503460020002418461830012522
:102350008D40ACB21D8CA5431D8409B1082909D15B
:1023600000EB6100056825F0700505600568154300
:1023700005600EE00D1FC5F34E052844056825F4E1
:10238000E045056005684FF6FF7606EA022635430C
:10239000056070BD21B1028842F00202028004E0B3
:1023A00002884FF6FD731A400280704721B10288FF
:1023B00042F00402028004E002884FF6FB731A40E8
:1023C0000280704721B1828842F08002828004E05E
:1023D00082884FF67F731A408280704702884FF6DA
:1023E000F7731A40028002880A430280704782888D
:1023F0004FF68F731A40828082880A43828070472A
:1024000002894FF6F8731A40028102890A43028159
:10241000704702894FF67F731A40028102890A438E
:10242000028170478184704781857047818670473B
:102430000187704781877047A0F840107047028875
:102440004FF6FF431A40028002880A430280704719
:102450000146888E70470146088F70470146888F75
:1024600070470146B1F8400070470146888C7047BC
:102470000146088D704702460020138A0B400BB1BD
:10248000012000E000207047CA430282704730B547
:102490000246002000230024158A05EA01039589DD
:1024A00005EA010413B10CB1012000E0002030BDA9
:1024B000CA4302827047000010B50446FB488442BC
:1024C00009D101218803FFF79FF800214FF48040D4
:1024D000FFF79AF832E0F648844209D10121480416
:1024E000FFF79FF800214FF40030FFF79AF825E03E
:1024F000F048844209D101218804FFF792F80021B5
:102500004FF48020FFF78DF818E0EB48844209D1A2
:102510000121C804FFF785F800214FF40020FFF7E0
:1025200080F80BE0E548844208D101210805FFF757
:1025300078F800214FF48010FFF773F810BD2DE9F3
:10254000F04786B005460E460024A24600BFA146CD
:102550000027B08900B100BF2F462C8A4CF6FF70CF
:102560000440F08804432C82AC894EF6F3100440FA
:10257000B08831890843718908430443AC81AC8A2F
:102580004FF6FF400440B0890443AC8201A8FEF737
:10259000B4FFC648874202D1DDF810A001E0DDF8A3
:1025A0000CA0A88900F4004040B10AEBCA0000EB7F
:1025B0000A1031684900B0FBF1F807E00AEBCA00E5
:1025C00000EB0A1031688900B0FBF1F86420B8FB19
:1025D000F0F004012009642101FB1089A88900F4AE
:1025E000004040B1322000EBC900B0FBF1F000F038
:1025F0000700044308E0322000EB09106421B0FB1F
:10260000F1F000F00F0004432C8106B0BDE8F08724
:102610004FF41651016000218180C18001810C219D
:10262000418100218181704710B502460020108A47
:102630004FF2FF0318400B884C8823438C882343B8
:10264000CC8823431843108210BD002101804180B3
:102650008180C180704721B1828942F40052828119
:1026600004E082894DF6FF731A4082817047F0B50D
:102670000346002400260025002040F66A17B942D0
:1026800000D100BF1846C1F3421401F01F06012714
:1026900007FA06F5012C01D10C3004E0022C01D11F
:1026A000103000E014301AB107682F43076002E0D1
:1026B0000768AF430760F0BD1AB1838A0B4383827A
:1026C00002E0838A8B4383827047028A4FF6F0735D
:1026D0001A400282028A0A430282704782894FF2BC
:1026E000FF731A40828182890A438281704721B137
:1026F000828942F00202828104E082894FF6FD73F2
:102700001A4082817047028A4FF6DF731A400282B4
:10271000028A0A430282704721B1028A42F480424F
:10272000028204E0028A4BF6FF731A40028270476D
:10273000C1F308028280704701468888C0F3080010
:102740007047818941F0010181817047028BD2B2CB
:102750000283028B42EA012202837047028B02F459
:102760007F420283028B0A430283704721B1828A2F
:1027700042F02002828204E0828A4FF6DF731A4020
:102780008282704721B1828A42F01002828204E084
:10279000828A4FF6EF731A408282704721B1828A93
:1027A00042F00802828204E0828A4FF6F7731A40F0
:1027B0008282704721B1828942F40042828103E023
:1027C0008289C2F30E028281704721B1828A42F46B
:1027D0000062828204E0828A4FF2FF731A40828292
:1027E0007047828A4FF6FB731A408282828A0A43BC
:1027F0008282704721B1828A42F00202828204E022
:10280000828A4FF6FD731A4082827047024600208A
:10281000B1F5007F00D100BF13880B400BB1012040
:1028200000E00020704701F40072B2F5007F00D193
:1028300000BFCA430280704770B5024600240023DF
:102840000025002040F66A16B14200D100BFC1F356
:10285000421501F01F03012606FA03F3012D02D1F0
:102860009689334006E0022D02D1168A334001E0FA
:10287000968A33400C12012606FA04F41688344076
:1028800013B10CB1012000E0002070BD10B5002292
:10289000002340F66A14A14200D100BF0A120124AD
:1028A0009440A3B2DC43048010BD00000038014016
:1028B0000044004000480040004C004000500040F0
:1028C0002DE9F04FB3B04FF0000B0A21042002F0C5
:1028D00064FC3290329803F062FF019003F0BAFF7B
:1028E00080464FF06632A64B03F078FECDE9020138
:1028F00003F0DCFF319043F239000D904FF4FA60A1
:102900000A90319803F0A6FF06460F4600224FF0CA
:1029100080433046394603F0D3FECDE90801372025
:1029200007902120069003F0D8FB059095A126A8DA
:102930000D9A04F04FF94FF6E070002326AA1946CD
:102940000090184601F01FFE0CA9522000F01FFC59
:102950000B90262804D00CA9522000F018FC0B90F4
:102960000B98262826D10CA800F03CFC262821D163
:102970000CA800F0ABFC0CAB884A1121602000F0E1
:10298000DEFC9DF833009DF83210CDE900109DF873
:1029900031309DF8302082A129A804F01BF94FF6B0
:1029A000E070002329AA10210090184601F0EBFDE9
:1029B00000F0A9FD32463B4682A123A804F00AF9A3
:1029C0004FF6E070002323AA20210090184601F062
:1029D000DAFD82A120A8DDE9082304F0FBF84FF618
:1029E000E070002320AA30210090184601F0CBFDB2
:1029F000804802F04BFE804603F02CFF04460D4653
:102A000022462B467CA11DA804F0E4F84FF6E070A6
:102A100000231DAA50210090184601F0B4FD462065
:102A200002F092FC18B902F0EBFC8346DA467849D2
:102A3000504603F057FF03D820207649086003E092
:102A400020207449091F0860504603F003FF8046A8
:102A500042460B4670A11AA804F0BCF84FF6E0708D
:102A600000231AAA40210090184601F08CFD6FA1A6
:102A700017A8079A04F0AEF84FF6E070002317AAE3
:102A800060210090184601F07EFD68A114A8069A06
:102A900004F0A0F84FF6E070002314AA7021009013
:102AA000184601F070FD68A111A8059A04F092F88B
:102AB0004FF6E070002311AA80210090184601F023
:102AC00062FD68A10EA80A9A04F084F84FF6E0703F
:102AD00000230EAA90210090184601F054FD33B057
:102AE000BDE8F08F08B54FF4A060FDF72DFC00F0B5
:102AF000D7F802F05BFE03F04BFB00F089F902F01F
:102B0000EDFA02F002FD02F072FC02F0EDFA03F0C1
:102B10009DFB02F06FFF02F09AFF02F0B1FF03F09D
:102B200011F840F2671140F2CF7003F093F940F2D0
:102B30009F5140F2E73003F0E2F947214FF6FF7072
:102B400003F01FFA2B4802F092FD2E214A48FFF7AE
:102B50006DFC03F0E5FB00F016FA412000F054FA9A
:102B600000204FF4A073F0220146009001F037FBE3
:102B700005E002F0BEFEFFF7A3FE03F0D0F8F8E791
:102B800066664A3F5468652062696379636C6520B4
:102B900049442069733A25640000000028000020A1
:102BA00054686520626174746572792049442069B3
:102BB000733A253032582530325825303258253076
:102BC000325800006261747465727920766F6C749B
:102BD0006167653A256C665600000000646973639E
:102BE00068617267652063757272656E743A256CF0
:102BF000664100004000002061726F756E642074B1
:102C0000656D70657261747572653A256C66430016
:102C100000007041140C014061726F756E64206C8D
:102C2000696768743A256C66636400004C6F636181
:102C300074696F6E20696E666F726D6174696F6E14
:102C400020583A256400000044697374616E63651E
:102C5000206F66206F626A6563743A202564434D75
:102C6000000000004D6F746F722073706565643AE8
:102C7000202564722F73000000040040704700BFDD
:102C8000FEE700BFFEE700BFFEE700BFFEE77047BC
:102C90007047704710B500F052F810BD7047000043
:102CA00030B52B4800682B4AB0FBF2F1B1F1807FC0
:102CB00001D301201DE021F07F40401E4FF0E022B3
:102CC000506150170F22002807DA13071D0E224B00
:102CD00000F00F04241F1D5503E013071C0E1F4BAB
:102CE0001C5400BF00204FF0E022906107201061CB
:102CF000002008B100BFFEE74FF0E020006920F09F
:102D000001004FF0E021086130BD01B51449009881
:102D100008604FF0E020006940F001004FF0E02132
:102D2000086100BF0E4800680028FBD14FF0E0208A
:102D3000006920F001004FF0E021086108BD08485B
:102D4000006820B106480068401E054908607047C9
:102D50000000002040420F0018ED00E000E400E019
:102D60004800002008B501211020FEF733FC4FF485
:102D70000060ADF8000003208DF8020010208DF8EF
:102D8000030069462948FEF769F901210420FEF78E
:102D900021FC2020ADF8000003208DF80200102057
:102DA0008DF8030069462248FEF758F901210420F6
:102DB000FEF710FC8020ADF8000003208DF8020023
:102DC00010208DF8030069461948FEF747F90121E4
:102DD0000420FEF7FFFB4020ADF8000004208DF832
:102DE000030069461248FEF739F901211020FEF769
:102DF000F1FB4FF48060ADF8000003208DF8020075
:102E000010208DF8030069460848FEF727F908BD31
:102E100010B5FFF7A7FF4FF480610448FEF7CBF928
:102E20004FF400610148FEF7C6F910BD00100140E3
:102E30000008014070B50446002520E004F0800041
:102E400020B18021F948FEF7B6F903E08021F74868
:102E5000FEF7B3F90220FFF758FF2021F348FEF7F1
:102E6000ACF90220FFF751FF2021F048FEF7A3F94B
:102E70000220FFF74AFF6006040E681CC5B2082D49
:102E8000DCDB70BD70B500251CE06006040E20215F
:102E9000E648FEF792F90220FFF737FF4021E348AA
:102EA000FEF76FF9012801D144F001040220FFF779
:102EB0002CFF2021DD48FEF77EF90220FFF725FFD9
:102EC000681CC5B2082DE0DB204670BD70B5044615
:102ED0007E2000EA440040F080054FF40061D448B1
:102EE000FEF76BF92846FFF7A5FFFFF7CBFF064675
:102EF0004FF40061CE48FEF75EF9304670BD70B504
:102F000004460D467E2000EA44064FF40061C8489E
:102F1000FEF753F93046FFF78DFF2846FFF78AFF8B
:102F20004FF40061C248FEF746F970BD70B5054622
:102F30000C462846FFF7CAFF064646EA0401284623
:102F4000FFF7DDFF70BD70B505460C462846FFF75C
:102F5000BDFF064626EA04012846FFF7D0FF70BDF4
:102F600010B51420FFF7B2FF044604F0030018B9AF
:102F700003211420FFF7DAFF10BD10B50321142040
:102F8000FFF7E1FF10BD10B54FF48061A848FEF7D0
:102F900012F90120FFF7B9FE4FF48061A448FEF753
:102FA0000CF90120FFF7B1FE4FF48061A048FEF755
:102FB00002F90120FFF7A9FE0F210120FFF79FFF73
:102FC00000BF0120FFF782FF00F010000028F8D1B9
:102FD0000120FFF79AFE3D211120FFF790FF1E21EF
:102FE0002D20FFF78CFF00212C20FFF788FF8D217B
:102FF0002A20FFF784FF3E212B20FFF780FF40218E
:103000001520FFF77CFF10BD10B50446412C24D1DC
:1030100008210846FFF797FF3D211120FFF76FFFBA
:1030200086211720FFF76BFF7F212620FFF767FF20
:103030001E212D20FFF763FF00212C20FFF75FFFEB
:103040008D212A20FFF75BFF3E212B20FFF757FF42
:103050000220FFF75AFEFFF783FF10BD2DE9FE4F58
:103060000646884691469A46DDF830B0BB2002906D
:103070000020019000900C2E06D00E2E09D11220B7
:1030800001901020009005E0772001903020009002
:1030900000E000BF00BF019840F080010220FFF770
:1030A0002EFF80210420FFF74EFF00210120FFF7B3
:1030B00026FF80210A20FFF739FF002505E018F8D8
:1030C00005100920FFF71BFF6D1C4D45F7D3314656
:1030D0000120FFF714FF0C2E03D180210D20FFF7F4
:1030E00025FF4FF47A7500BF0420FFF7EFFE04467A
:1030F0006D1E35B104F0010018B900982040002879
:10310000F2D080210D20FFF71EFF95B30620FFF7B8
:10311000DDFE00F01B0068BB2620029001982040D5
:1031200000F0010008B1CC2002900C2E24D10A201E
:10313000FFF7CCFE04460C20FFF7C8FE00F007079F
:103140002FB1601E07EBC000CBF8000002E0E000EA
:10315000CBF8000004B90124122C00DD1224002554
:1031600005E00920FFF7B2FE0AF805006D1CA54234
:10317000F7D301E0BB20029080210C20FFF7D6FEA0
:1031800000210120FFF7BBFE0298BDE8FE8F70B55D
:1031900088B005460C4608210846FFF7D4FE0721F3
:1031A0000D20FFF7ACFE03211420FFF7BFFE8DF8C2
:1031B0000C5002A803AB012203A900900C20FFF7DA
:1031C0004DFF0646262E09D10298102806D19DF8FB
:1031D0000C0020709DF80D00607000E0BB263046AA
:1031E00008B070BDF0B587B0054600270821084635
:1031F000FFF7A9FE00210D20FFF781FE80210E20A0
:10320000FFF7A1FE93208DF8080020208DF809001B
:1032100001A802AB022202A900900C20FFF71EFFBA
:103220000646262E15D100240CE0000000080140BF
:103230000010014002A8005D285502A8005D47402B
:10324000601CC4B2042CF5DB02A8005DB84200D0BB
:10325000BB2680210E20FFF769FE304607B0F0BD87
:103260002DE9F04107468846154604210520FFF761
:103270006AFE00210120FFF742FE80210A20FFF7AD
:1032800055FE002405E0395D0920FFF738FE601C7B
:10329000C4B24445F7DB03210120FFF730FEFF24D1
:1032A00000BF0520FFF712FE0646601EC4B21CB127
:1032B00006F004000028F4D02220FFF707FE287053
:1032C0002120FFF703FE6870BDE8F08170B588B07B
:1032D000054693208DF80C0070208DF80D0000201D
:1032E0008DF8120000240BE0295D03AAA01C1154E4
:1032F0009DF81200295D48408DF81200601CC4B290
:10330000042CF1DB0DF11302072103A8FFF7A8FF3E
:1033100008210846FFF717FE02A803AB092203A9FC
:1033200000900C20FFF79AFE0646262E03D1029845
:10333000182800D100E0BB26304608B070BD2DE94A
:10334000F04387B006460F46904699468DF80860D0
:103350008DF80970002406E018F8041002AAA01CD9
:103360001154601CC4B2062CF6DB002407E019F8E7
:10337000041002AA04F108001154601CC4B2062C07
:10338000F5DB01A802AB0C2202A900900E20FFF78A
:1033900065FE0546262D05D10820FFF797FD00F0B4
:1033A000080000B9BB25284607B0BDE8F083F0B59A
:1033B00087B006460F46A0208DF808008DF80960FA
:1033C0000DF10A02022102A8FFF74AFF01A802AB91
:1033D000042202A900900C20FFF740FE0546262D8E
:1033E00008D10198042805D19DF8080000F00F00CD
:1033F0000A2800D0BB25262D22D1002404E0385D08
:1034000002A90855601CC4B2102CF8DB06AA1021D2
:1034100002A8FFF725FF01A802AB122202A9009023
:103420000C20FFF71BFE0546262D08D10198042825
:1034300005D19DF8080000F00F000A2800D0BB2538
:10344000284607B0F0BDF0B587B005460E463020DF
:103450008DF808008DF809500DF10A02022102A82A
:10346000FFF7FEFE01A802AB042202A900900C2087
:10347000FFF7F4FD0746262F0CD10198902809D1BB
:10348000002404E002A8005D3055601CC4B2102C7A
:10349000F8DB00E0BB27384607B0F0BD10B50446A6
:1034A00024B9D6A003F086FB002010BD402C09DA19
:1034B000601CC11700EB91718910A0EB810109B16B
:1034C0000120F2E7D7A003F075FB0020EDE770B50F
:1034D00004460D462046FFF7E1FF20B1294620466D
:1034E000FFF765FF70BDBB20FCE770B504460D46D5
:1034F0002046FFF7D3FF20B129462046FFF7A3FF60
:1035000070BDBB20FCE700B587B050208DF80800E7
:1035100000208DF809000DF10A02022102A8FFF730
:103520009FFE01A802AB042202A900900C20FFF725
:1035300095FD262007B000BD7FB505460C46E0B2DC
:103540008DF80000200A8DF80100200C8DF8020093
:10355000200E8DF80300E043C0B28DF80400E04374
:10356000000A8DF80500E043000C8DF80600E043EA
:10357000000E8DF80700E0B28DF80800200A8DF8E3
:103580000900200C8DF80A00200E8DF80B008DF834
:103590000C50E843C0B28DF80D008DF80E50E84392
:1035A000C0B28DF80F0069462846FFF700FF0646B7
:1035B000304604B070BD2DE9FF4107460D46BB26DD
:1035C00069463846FFF73FFF0646262E03D03046B1
:1035D00004B0BDE8F081002412E01DF8041004F1ED
:1035E00008001DF80000814208D01DF80410201DBD
:1035F0001DF80000C043814200D003E0601CC4B24B
:10360000042CEADB00BF042C10D126269DF8000014
:103610009DF8011000EB01209DF8021000EB014025
:103620009DF8031000EB0160286002E0BB2600203B
:1036300028603046CCE770B588B005460E467FA1BD
:1036400003C9CDE9060105E07EA003F0B3FA804886
:10365000FFF75BFB05A95220FFF799FD2628F3D160
:103660007CA003F0A7FA05A8FFF7BCFD262834D1FB
:1036700005A8FFF72BFE05AB06AA29466120FFF738
:103680005EFE262802D076A003F094FA01A928460F
:10369000FFF7D9FE262805D075A003F08BFABB20D2
:1036A00008B070BD002404E0305D01A90855601C1D
:1036B000C4B2062CF8DB01A92846FFF778FE2628BD
:1036C00004D071A003F076FABB20E9E774A003F000
:1036D00071FAFFF718FF2620E2E7BB20E0E7F0B51C
:1036E00087B005460E46174654A103C9CDE905012A
:1036F00005E054A003F05EFA5548FFF706FB04A965
:103700005220FFF744FD2628F3D152A003F052FACD
:1037100004A8FFF767FD26282FD104A8FFF7D6FDE0
:1037200004AB05AA29466120FFF709FE262802D02E
:103730004BA003F03FFA00240AE0BC4203DA305DFC
:103740000DF8040002E000200DF80400601CC4B273
:10375000102CF2DB69462846FFF729FE262805D003
:1037600054A003F027FABB2007B0F0BD57A003F028
:1037700021FAFFF7C8FE2620F6E7BB20F4E73EB5A6
:1037800004460D462DA103C9CDE9010105E02DA098
:1037900003F010FA2E48FFF7B8FA69465220FFF7F7
:1037A000F6FC2628F3D12BA003F004FA6846FFF7B5
:1037B00019FD26281FD16846FFF788FD6B4601AA30
:1037C00021466120FFF7BBFD262802D024A003F08C
:1037D000F1F929462046FFF736FE262804D040A0FE
:1037E00003F0E8F9BB203EBD42A003F0E3F9FFF788
:1037F0008AFE2620F7E7BB20F5E70000B5DA30C9DE
:10380000C8C7F8B5C4BFE930B2BBBFC9B8FCB8C4BB
:103810002CB2BBD3A6B6D4C6E4BDF8D0D0B2D9D7AB
:10382000F70D0A00BFE9B5D8D6B7B2BBCAC7D6B83C
:10383000CFF2CAFDBEDDBFE90D0A0000FFFFFFFFAA
:10384000FFFF0000D1B0BFA8CAA7B0DC0D0A00007E
:1038500040420F00D1B0BFA8B3C9B9A60A0000000A
:10386000BCECD1E9C3DCC2EB42CAA7B0DC0D0A0054
:10387000B6C1C8A1BFD8D6C6BFE9CAFDBEDDCAA7BA
:10388000B0DC0D0A00000000D0B4C8EBCAFDBEDDFC
:10389000B5BDBFD8D6C6BFE9CAA7B0DC0D0A0000C7
:1038A000C3DCC2EB41D0DEB8C4B3C9B9A6A3A10D35
:1038B0000A000000D0B4C8EBCAFDBEDDB5BDCAFD2C
:1038C000BEDDBFE9CAA7B0DC0D0A0000D0B4C8EB6A
:1038D000CAFDBEDDB3C9B9A6A3A10D0A0000000050
:1038E000B6C1C8A1CAFDBEDDBFE9CAA7B0DC0D0ADA
:1038F00000000000B6C1C8A1CAFDBEDDB3C9B9A6AB
:10390000A3A10D0A0000000001B502E00098401ECE
:10391000009000980028F9D108BD08B5012108469B
:10392000FDF758FE01216020FDF754FE03208DF8BD
:10393000020018208DF803004CF20370ADF800006F
:103940006946FE48FDF78AFB4FF68070ADF800002F
:103950006946FB48FDF782FB03208DF80200182022
:103960008DF803001020ADF800006946F348FDF71C
:1039700075FB2020ADF800006946F048FDF76EFBAE
:1039800001212020FDF726FE8020ADF800006946C9
:10399000EA48FDF763FB01212020FDF71BFE4FF4F1
:1039A0000060ADF800006946E448FDF757FB1020C1
:1039B0008DF8030003208DF8020001214020FDF75F
:1039C00009FE0220ADF800006946DD48FDF746FB20
:1039D00010208DF8030003208DF802000121202023
:1039E000FDF7F8FD4FF48050ADF800006946D3486C
:1039F000FDF734FB08BD00B597B03C2108A802F0E4
:103A0000C4FC1C2101A802F0C0FC01210802FDF742
:103A1000D4FD022001900020029005200390002098
:103A20000490059006904FF0805007900020089079
:103A3000099008200A9010200B9000200C900E9006
:103A40000F9010904FF4805011900020129013901E
:103A5000149001A81590169008A8FCF7E5FF012125
:103A60000020FDF749F917B000BD10B5002404206F
:103A700003F096F800BFB348008800BFB148008843
:103A800003F088F804464FF6FF7000EA042403F0C0
:103A900081F8044348F25250844201D1204610BDBF
:103AA000D32003F07DF800BFA648008800BFA548DA
:103AB000008803F06FF804464FF6FF7000EA042414
:103AC00003F068F8044349F24130844201D12046B2
:103AD000E5E70020E3E710B5FFF7C7FF9A49088044
:103AE0000846008849F2413188427CD1CF2003F05A
:103AF00057F8002003F058F8812003F055F83020E3
:103B000003F052F8ED2003F04BF8642003F04CF87A
:103B1000032003F049F8122003F046F8812003F057
:103B200043F8E82003F03CF8852003F03DF810202E
:103B300003F03AF8782003F037F8CB2003F030F8A0
:103B4000392003F031F82C2003F02EF8002003F088
:103B50002BF8342003F028F8022003F025F8F72092
:103B600003F01EF8202003F01FF8EA2003F018F8F5
:103B7000002003F019F8002003F016F8B12003F03C
:103B80000FF8002003F010F81B2003F00DF8B6200A
:103B900003F006F80A2003F007F8A22003F004F867
:103BA000C02002F0FDFF352002F0FEFFC12002F030
:103BB000F7FF112002F0F8FFC52002F0F1FF4520C9
:103BC00002F0F2FF452002F0EFFFC72002F0E8FF0D
:103BD000A22002F0E9FFF22002F0E2FF002002F052
:103BE000E3FF262000E098E002F0DAFF012002F077
:103BF000DBFFE02002F0D4FF0F2002F0D5FF2620EB
:103C000002F0D2FF242002F0CFFF0B2002F0CCFF05
:103C10000E2002F0C9FF092002F0C6FF542002F076
:103C2000C3FFA82002F0C0FF462002F0BDFF0C2019
:103C300002F0BAFF172002F0B7FF092002F0B4FF2C
:103C40000F2002F0B1FF072002F0AEFF002002F0CB
:103C5000ABFFE12002F0A4FF002002F0A5FF192035
:103C600002F0A2FF1B2002F09FFF042002F09CFF45
:103C7000102002F099FF072002F096FF2A2002F0A0
:103C800093FF472002F090FF392002F08DFF0320C0
:103C900002F08AFF062002F087FF062002F084FF70
:103CA000302002F081FF382002F07EFF0F2002F06A
:103CB0007BFF362002F074FFC82002F075FF2A2037
:103CC00002F06EFF002002F06FFF002002F06CFF98
:103CD000002002F069FFEF2002F066FF2B2002F0C7
:103CE0005FFF002002F060FF002002F05DFF012076
:103CF00002F05AFF3F2002F057FF3A2002F050FF37
:103D0000552002F051FF112002F04AFF0F48FFF743
:103D1000FBFD292002F044FF06E10B48008848F231
:103D200052518842F8D1CF2002F03AFF002002F031
:103D30003BFFC12002F038FF302009E000140140B1
:103D400000180140000002604C000020FCBF02008F
:103D500002F02AFFED2002F023FF642002F024FF8E
:103D6000032002F021FF122002F01EFF812002F04A
:103D70001BFFE82002F014FF852002F015FF102041
:103D800002F012FF782002F00FFFCB2002F008FFB4
:103D9000392002F009FF2C2002F006FF002002F07B
:103DA00003FF342002F000FF022002F0FDFEF720A6
:103DB00002F0F6FE202002F0F7FEEA2002F0F0FE0C
:103DC000002002F0F1FE002002F0EEFEC02002F022
:103DD000E7FE212002F0E8FEC12002F0E1FE112002
:103DE00002F0E2FEC52002F0DBFE2D2002F0DCFE38
:103DF000332002F0D9FE362002F0D2FE002002F07D
:103E0000D3FE3A2002F0CCFE552002F0CDFEB120C8
:103E100002F0C6FE002002F0C7FE172002F0C4FE2A
:103E2000B62002F0BDFE0A2002F0BEFEA22002F083
:103E3000BBFEF62002F0B4FE012002F0B5FE3020F9
:103E400002F0B2FEF22002F0ABFE002002F0ACFE67
:103E5000262002F0A5FE012002F0A6FEE02002F0DE
:103E60009FFED02002F0A0FE002002F09DFE022066
:103E700002F09AFE072002F097FE0B2002F094FE5B
:103E80001A2002F091FE312002F08EFE542002F042
:103E90008BFE402002F088FE292002F085FE1220D1
:103EA00002F082FE122002F07FFE122002F07CFE61
:103EB000172002F079FEE12002F072FED02002F01D
:103EC00073FE002002F070FE022002F06DFE07205B
:103ED00002F06AFE052002F067FE252002F064FE73
:103EE0002D2002F061FE442002F05EFE452002F02B
:103EF0005BFE1C2002F058FE182002F055FE162032
:103F000002F052FE1C2002F04FFE1D2002F04CFE7B
:103F1000112002F045FEFE48FFF7F6FC292002F0D2
:103F20003FFE2C2002F03CFE10BD10B50221F948E6
:103F3000FDF743F9F648FFF7E7FC0221F548FDF7E6
:103F40003AF9F348FFF7E0FC10BD10B504462CB178
:103F50004FF48051F048FDF730F904E04FF4805100
:103F6000ED48FDF728F910BD10B5FFF7D6FCFFF7B7
:103F700042FD0120FFF7E9FFFFF7D7FFFFF7ABFD99
:103F800010BD10B50446012C06D0022C39D0032CEC
:103F90006CD0042C34D19EE0362002F001FEDF48C4
:103FA000008849F24131884203D1C82002F0FCFD6B
:103FB00008E0DA48008848F25251884202D1C02015
:103FC00002F0F2FD2A2002F0EBFD002002F0ECFDF1
:103FD000002002F0E9FD002002F0E6FDEF2002F0F3
:103FE000E3FD2B2002F0DCFD002002F0DDFD0020CF
:103FF00002F0DAFD012002F0D7FD3F2002F0D4FDEF
:104000009EE0362002F0CCFDC448008849F24131E0
:10401000884203D1682002F0C7FD08E0BF4800884D
:1040200048F25251884202D1602002F0BDFD2A20A0
:1040300002F0B6FD002002F0B7FD002002F0B4FD52
:10404000012002F0B1FD3F2002F0AEFD2B2002F076
:10405000A7FD002002F0A8FD002002F0A5FD002031
:1040600002F0A2FDEF2002F09FFD69E0362002F091
:1040700097FDAA48008849F24131884203D128209F
:1040800002F092FD08E0A548008848F252518842AB
:1040900002D1202002F088FD2A2002F081FD0020BC
:1040A00002F082FD002002F07FFD012002F07CFD85
:1040B0003F2002F079FD2B2002F072FD002002F07B
:1040C00073FD002002F070FD002002F06DFDEF2076
:1040D00002F06AFD34E0362002F062FD8F4800886D
:1040E00049F24131884203D1482002F05DFD08E0E9
:1040F0008A48008848F25251884202D1402002F09A
:1041000053FD2A2002F04CFD002002F04DFD00205E
:1041100002F04AFD002002F047FDEF2002F044FDCE
:104120002B2002F03DFD002002F03EFD002002F0B9
:104130003BFD012002F038FD3F2002F035FD00BFBD
:1041400000BF2C2002F02CFD10BD2DE9F0410446EB
:104150000D4616461F462A2002F022FD201202F0CC
:1041600023FDE0B202F020FDA119491EC1F30F208A
:1041700002F01AFDA119491EC8B202F015FD2B204C
:1041800002F00EFD281202F00FFDE8B202F00CFD65
:10419000E919491EC1F30F2002F006FDE919491E75
:1041A000C8B202F001FDBDE8F08170B504460D46CD
:1041B00001231A4629462046FFF7C7FF70BD70B598
:1041C00004460D4600262C2002F0EAFC00BF03E066
:1041D000284602F0E9FC761CA642F9D370BD2DE911
:1041E000F04106460F4614461D46DDF818802B4662
:1041F000224639463046FFF7A8FF04FB05F041464A
:10420000FFF7DDFFBDE8F08170B506460C461546A8
:10421000F02E0ADAB4F5A07F07DA21463046FFF720
:10422000C4FF29460120FFF7CAFF70BD70B5002406
:1042300000252E2002F0B4FC00BF3948008802F0AF
:10424000A9FC044602F0A6FC054604F478404FF4AD
:10425000FC6101EAC401084340EAE52070BD70B585
:1042600004460D4629462046FFF79FFFFFF7DEFF75
:104270000646304670BD2DE9FF4F85B081468A461F
:104280004FF0000B002001900798A0EB090508985B
:10429000A0EB0A06CDF80C90CDF808A0002D01DDAA
:1042A000012705E00DB9002702E04FF0FF376D420E
:1042B000002E02DD4FF0010806E016B94FF00008AD
:1042C00002E04FF0FF387642B54201DD2C4600E0B7
:1042D00034460020049029E0129ADDE90210FFF72D
:1042E00093FFAB44019830440190A34505DDABEB4F
:1042F000040B0398384480B203900198A04206DD75
:104300000198001B01900298404480B2029009E09D
:10431000FCBF020000180140001401404C000020C6
:10432000000002600498401C80B20490611C049854
:104330008842D1DD09B0BDE8F08F2DE9F84304468D
:104340000D4616461F46DDE90889B9F1000F08D071
:104350003B46324629462046CDF80080FFF73FFF16
:104360002FE0A019401E82B22B4629462046CDF8E8
:104370000080FFF780FFE819401E83B2A019401E9D
:1043800082B2E819401E81B22046CDF80080FFF7C6
:1043900072FFE819401E83B2224629462046CDF816
:1043A0000080FFF768FFE919491E8BB2A119491E69
:1043B0008AB2A119491E88B22946CDF80080FFF7BC
:1043C0005AFFBDE8F8832DE9F05F05460E46914699
:1043D0009B4600240FFA89F70320A0EB49000FFA4F
:1043E00080FA97E00A98002848D0A04643E006EB00
:1043F000080291B22A1990B25A46FFF705FF06EB60
:10440000080291B22A1B90B25A46FFF7FDFE3219FC
:1044100091B2A5EB080290B25A46FFF7F5FE321BA7
:1044200091B2A5EB080290B25A46FFF7EDFEA6EB5B
:10443000080291B22A1B90B25A46FFF7E5FEA6EB9E
:10444000080291B22A1990B25A46FFF7DDFE321BDC
:1044500091B205EB080290B25A46FFF7D5FE321929
:1044600091B205EB080290B25A46FFF7CDFE08F173
:1044700001000FFA80F8B845B9DD37E0F21991B2C2
:104480002A1990B25A46FFF7BFFEF21991B22A1BC1
:1044900090B25A46FFF7B8FE321991B2EA1B90B2B9
:1044A0005A46FFF7B1FE321B91B2EA1B90B25A4650
:1044B000FFF7AAFEF21B91B22A1B90B25A46FFF7F1
:1044C000A3FEF21B91B22A1990B25A46FFF79CFE46
:1044D000321B91B2EA1990B25A46FFF795FE321993
:1044E00091B2EA1990B25A46FFF78EFE601C04B2F0
:1044F000BAF1000F05DAA000801D50440FFA80FACF
:1045000007E0E01B80000A3050440FFA80FA781E62
:1045100007B200BFBC427FF765AFBDE8F09F2DE951
:10452000F05F81468A4615461E46A5F1200000F040
:10453000FF0B1023082251464846FFF706FE2C20A9
:1045400002F02EFB00241AE07F4800EB0B10075D01
:104550004FF000080EE007F0010018B10A9802F0D1
:1045600023FB02E0304602F01FFB7F1008F1010040
:1045700000F0FF08B8F1080FEDDB601CC4B2102C8E
:10458000E2DBBDE8F09F2DE9F84305460E461446F0
:104590001F46DDF820801AE028460830F02803DDA9
:1045A000002506F1100086B230461030B0F5A07F2D
:1045B00001DD00250026CDF8008022783B463146FB
:1045C0002846FFF7ACFF641C05F1080085B220788F
:1045D0000028E1D1BDE8F8832DE9F04F89B080468D
:1045E000894693461E46DDF848A010231A464946E0
:1045F0004046FFF7AAFD2C2002F0D2FA002422E068
:1046000001A810F814504FF6FF7000EA05250120AC
:1046100000EB440001A9085C054300270FE005F406
:10462000004018B1504602F0BFFA02E0304602F0F6
:10463000BBFA4FF6FF7000EA4505781CC7B2102F91
:10464000EDDB601CC4B2102CDADB09B0BDE8F08FE2
:104650002DE9F84305460E4614469846DDF82090AD
:104660001FE028461030F02803DD002506F1100079
:1046700086B230461030B0F5A07F01DD002500265F
:104680002788380200EB272087B243463A46314656
:104690002846CDF80090FFF79FFF05F1100085B286
:1046A000A41C20780028DCD1BDE8F8832DE9F8436C
:1046B00005460E4614469946DDF820803EE02078F7
:1046C0007E281BDC28460830F02803DD002506F193
:1046D000100086B230461030B0F5A07F01DD002515
:1046E0000026CDF8008022784B4631462846FFF759
:1046F00016FF05F1080085B2641C1FE02846103043
:10470000F02803DD002506F1100086B23046103097
:10471000B0F5A07F01DD002500262788380200EBD8
:10472000272087B24B463A4631462846CDF80080CE
:10473000FFF752FF05F1100085B2A41C2078002875
:10474000BDD1BDE8F8830000B874000808B54FF487
:10475000C060FBF7F9FD0A208DF8000000208DF8FD
:1047600001008DF8020001208DF803006846FBF778
:10477000F0FD08BD0EB501214120FCF72BFFFFF72E
:10478000E5FF1020ADF8080048208DF80B0002A9C5
:10479000FE48FCF763FC04210846FCF775FD102079
:1047A000009000208DF804000C208DF805000120F9
:1047B0008DF806006846FCF76BF80EBD08B50121C0
:1047C0006020FCF707FF0120ADF800008DF8020023
:1047D00010208DF803006946EC48FCF73FFC0420EC
:1047E000ADF800006946E948FCF738FC0820ADF850
:1047F000000001208DF8020048208DF80300694672
:10480000E248FCF72BFC4FF40050ADF8000001200B
:104810008DF8020010208DF803006946DC48FCF793
:104820001DFC4FF40051DA48FCF7C7FC08BD10B579
:10483000FFF7C4FFFFF79EFF10BD01B5002007E0A2
:104840000C2100BF0A1EA1F10103D9B2FAD1401C0C
:1048500000998842F4D308BD70B505460421CB48C1
:10486000FCF7ABFC0121C948FCF7A7FC00241FE0C2
:10487000C4F1070045FA00F000F0010020B1042166
:10488000C248FCF798FC03E00421C048FCF795FC03
:104890000520FFF7D2FF0121BC48FCF78CFC052066
:1048A000FFF7CBFF0121B948FCF787FC601CC4B2BD
:1048B000082CDDDB70BD70B500250421B348FCF782
:1048C0007CFC0121B148FCF776FC002414E00121B6
:1048D000AE48FCF772FC0821AC48FCF752FC0646D7
:1048E000C4F10B0006FA00F0284385B20121A74865
:1048F000FCF761FC601CC4B20C2CE8DB284670BDE0
:1049000010B504462046FFF7A7FFFFF7D4FF10BD00
:104910002DE9F04104460D469020FFF7F1FF06B265
:104920000120FFF78AFFD020FFF7EAFF07B22680B9
:104930002F80BDE8F0812DE9F0478CB006460025B8
:104940002821684601F021FD00BF0AA90BA8FFF746
:10495000DFFFBDF92C002DF81500BDF9281005A8C2
:1049600020F81510681CC5B210218848FCF709FC16
:1049700008B90A2DE9DB10218448FCF702FC10B1CC
:104980000020844908700A2D7BD1BDF90070B8461B
:10499000BDF91490CA4601240EE03DF91400B84256
:1049A00002DA3DF9147005E03DF91400404501DDDF
:1049B0003DF91480601CC4B20A2CEEDB012412E025
:1049C00005A830F91400484503DA05A830F9149019
:1049D00007E005A830F91400504502DD05A830F9BC
:1049E00014A0601CC4B20A2CEADBBDF90000BDF9BA
:1049F00002100844BDF904100844BDF9061008442B
:104A0000BDF908100844BDF90A100844BDF90C109E
:104A10000844BDF90E100844BDF910100844BDF952
:104A200012100844C01BA0EB0800C0F3CF00308078
:104A3000BDF91410BDF916000144BDF91800014478
:104A4000BDF91A000144BDF91C000144BDF91E0066
:104A50000144BDF920000144BDF922000144BDF923
:104A600024000144BDF926000844A0EB0900A0EB96
:104A70000A00C0F3CF00708001200CB0BDE8F087C1
:104A8000FFE70020F9E72DE9F04705460C461646FA
:104A90004FF0010921882289891AE38862899A1ACC
:104AA0005143A2882389D31A67886289BA1A03FB03
:104AB000121001F079FEC6E90C0100221346D6E976
:104AC0000C71384601F0DAFE02D14FF0000990E097
:104AD00029882A89891AE38862899A1A5143AA88FF
:104AE0002B89D31A67886289BA1A03FB121001F066
:104AF0005BFEC6E9000121882289891AAA882B89D0
:104B0000D21A51432A88D21AA3882789DB1B02FBB9
:104B1000131001F049FEC6E902012189AA88514318
:104B2000A2882B8902FB13116288514322885A43C1
:104B300023892F8803FB1723E28803FB0212A18835
:104B400079432388AF8803FB1713618903FB012096
:104B500001F02AFEC6E904016A886989511AE388CE
:104B600062899A1A5143EB886A899B1A678862891D
:104B7000BA1A03FB121001F017FEC6E906012188DC
:104B80002289891AEB886A899A1A05E0001801407F
:104B9000001401408000002051436B886A899A1AF2
:104BA000A3882789DB1B02FB131001F0FDFDC6E97A
:104BB00008012189EA885143A3886A8903FB1211FD
:104BC0006288514322886B895A4323896F8803FB8B
:104BD0001723E28803FB0213A18879432788EA8818
:104BE00007FB1212618902FB013001F0DDFDC6E90D
:104BF0000A014846BDE8F08738B504460D464FF433
:104C00007840A4F10A01009088B2012314222946B9
:104C1000FFF7E5FA4FF478400090A5F10A0081B261
:104C2000142301222046FFF7DAFA38BD2DE9F04FB0
:104C3000A7B04FF00009CA46002023902290834677
:104C40004FF4A074F025A010ADF87800A810ADF8CE
:104C50007A00BDF87800ADF87C0005EB45008110C6
:104C60001EA8C18004EB44008010ADF880001EA88F
:104C7000C1884181BDF88000ADF88400BDF87A108C
:104C80001EA8C1810220FFF77CF9002640E0002029
:104C90002B46224601460090FFF7A1FA0FF2DC3BBB
:104CA000584601F07DFBC01FA4EBC000C0F34F07C6
:104CB0004FF47840691000235A4600903846FFF7B9
:104CC00062FC721CF3A124A801F084FF4FF4784029
:104CD0001022C2EB650291B200906010002324AA5A
:104CE000FFF751FCEC48FFF7A8FD1EAA02EB860275
:104CF00051881EAA32F82600FFF77EFF00BF1AA9CE
:104D000001EB8600FFF717FE0028F8D0701CC6B232
:104D1000042EBCDB0CAA1AA91EA8FFF7B4FE0022C1
:104D20001346DDE91871384601F0A8FD00D10DE108
:104D30001AA9C88901F049FDCDE90001DDE90E732A
:104D40003A4601F04BFCCDE90401BDF8740001F0D6
:104D50003CFDCDE90001DDE90C733A4601F03EFC73
:104D6000CDE90201DDE9042301F091FBCDE9060163
:104D7000DDE910733A4601F08AFBCDE90801DDE96F
:104D800018733A4601F09CFCCDE90A0101F049FD97
:104D90001FFA80F91AA9C88901F017FDCDE90001B1
:104DA000DDE914733A4601F019FCCDE90401BDF8C0
:104DB000740001F00AFDCDE90001DDE912733A4605
:104DC00001F00CFCCDE90201DDE9042301F05FFBF9
:104DD000CDE90601DDE916733A4601F058FBCDE94D
:104DE0000801DDE918733A4601F06AFCCDE90A01D1
:104DF00001F017FD1FFA80FABDF88400484504DA77
:104E0000BDF88400A9EB000003E0BDF88400A0EB2E
:104E1000090080B223901EA8C089504504DA1EA85C
:104E2000C089AAEB000003E01EA8C089A0EB0A001D
:104E300080B2229023980A2802DC22980A2800DDFA
:104E400084E00022954BDDE90C71384601F0C6FB89
:104E5000CDE90A01DDE918733A4601F031FC904AC8
:104E600003C200228D4BDDE90E71384601F0B6FB1E
:104E7000CDE90A01DDE918733A4601F021FC884AC0
:104E8000C2E902010022854BDDE91071384601F0CC
:104E9000A5FBCDE90A01DDE918733A4601F010FCE3
:104EA0007F4AC2E9040100227C4BDDE912713846D9
:104EB00001F094FBCDE90A01DDE918733A4601F0EF
:104EC000FFFB774AC2E906010022744BDDE9147149
:104ED000384601F083FBCDE90A01DDE918733A4653
:104EE00001F0EEFB6E4AC2E9080100226B4BDDE9DE
:104EF0001671384601F072FBCDE90A01DDE918733D
:104F00003A4601F0DDFB664AC2E90A0100202B4661
:104F1000224601460090FFF762F90FF2881B5846BF
:104F200001F03EFAA4EBC000C0F34F074FF4784005
:104F3000691000235A4600903846FFF724FB5E486C
:104F4000FFF77BFC012027B0BDE8F08F00202B4647
:104F5000224601460090FFF742F90FF2601B5846C7
:104F600001F01EFAA4EBC000C0F34F074FF47840E5
:104F7000691000235A4600903846FFF704FB0FF2F1
:104F80004C1B584601F00CFAA4EBC000C0F34F07CD
:104F90004FF478400090102000EB650100235A4642
:104FA0003846FFF7F0FA4C48FFF747FC0020CAE705
:104FB0002DE9F04F89B081460C460120079006A8E4
:104FC000FFF7B9FC002852D0BDF81A0001F0FDFB34
:104FD0000546D4E902733A4601F000FB82468B464F
:104FE000BDF8180001F0F1FB0746D4E900532A464A
:104FF00001F0F4FA52465B46CDE9000101F047FAB0
:10500000CDE90201D4E904532A4601F040FACDE982
:10501000040101F006FCA9F80000BDF81A0001F037
:10502000D4FB0746D4E908532A4601F0D7FA824652
:105030008B46BDF8180001F0C8FB0746D4E90653BB
:105040002A4601F0CBFA52465B46CDE9000101F059
:105050001EFACDE90201D4E90A532A4601F017FAF3
:10506000CDE9040101F0DDFBA9F8020001E0002018
:105070000790079809B0BDE8F08F0000546F756382
:10508000682043616C696272617465202E2E2E2E39
:105090002E2E000025640000A08601000000F03FD5
:1050A0005000002043616C69627261746520537521
:1050B0006363656400000000400D030043616C6998
:1050C0006272617465206661696C00007472792097
:1050D000616761696E00000040420F0010B5FEF785
:1050E00043FFFFF7A4FB10BD00B587B001214FF4CB
:1050F0000170FCF76FFA4FF40040FCF7CFF9102075
:10510000ADF8040000208DF8070001A92E48FBF738
:10511000A5FF2E48FBF786F9002002908DF80C00C1
:105120008DF80D004FF460200490002005900120C0
:105130008DF8180002A92548FBF79BF901212348A7
:10514000FBF7C3F92148FBF7E2F900BF1F48FBF763
:10515000E3F90028FAD11D48FBF7E8F900BF1B4826
:10516000FBF7E9F90028FAD107B000BD10B50446F5
:105170000723012221461548FBF713FA01211348A2
:10518000FBF7E3F900BF02211048FBF74FFB0028B3
:10519000F9D00E48FBF76CFA10BD2DE9F041074637
:1051A0000C460025002608E03846FFF7DFFF0544DF
:1051B000052001F088F8701CC6B2A642F4DBB5FBEE
:1051C000F4F080B2BDE8F081000801400024014005
:1051D000002001E0411CC8B20A28FBDB704710B573
:1051E00080208F49086140200861FFF7F1FF80208F
:1051F0008B494861FFF7ECFF402089494861FFF780
:10520000E7FF10BD10B58020854948614020086146
:10521000FFF7DEFF80208249086110BD70B50446AB
:1052200000251DE004F0800018B180207C49086151
:1052300002E080207A494861FFF7CAFF40207849A0
:105240000861FFF7C5FF402075494861072D01D16E
:10525000802008616006040EFFF7BAFF681CC5B223
:10526000082DDFDB70BD70B50024002514E060065A
:10527000040E40206A490861FFF7AAFF6848806869
:1052800000F0800008B1601CC4B24020644948614D
:10529000FFF79EFF681CC5B2082DE8DB204670BDF5
:1052A00010B580205E490861FFF792FF40205C49FD
:1052B0000861FFF78DFF5A48806800F0800008B150
:1052C000012400E00024402055494861FFF780FF99
:1052D000204610BD10B5802051494861FFF778FF86
:1052E00040204F490861FFF773FF40204C49486157
:1052F000FFF76EFF80204A49086110BD10B580207D
:1053000047490861FFF764FF402045490861FFF7FE
:105310005FFF402042494861FFF75AFF10BD08B5C2
:1053200001211020FCF756F9C020ADF80000032041
:105330008DF8020014208DF8030069463848FBF709
:105340008DFEFFF75FFF08BD70B50446FFF747FF0E
:105350002046FFF763FFFFF7A3FF0546FFF752FF65
:10536000284670BD10B50446FFF739FF4620FFF709
:1053700055FFFFF795FF012800D110BD2046FFF72C
:105380004DFFFFF78DFF012801D10220F5E7FFF760
:1053900039FF0020F1E710B50024FFF720FF472078
:1053A000FFF73CFFFFF77CFF012801D1002010BD73
:1053B000FFF759FF0446FFF78DFFFFF754FF00EB9F
:1053C000042084B2FFF79AFFFFF71CFF2046EEE7A8
:1053D00010B50120FFF7C6FF10BD10B50020FFF784
:1053E000C1FF10BD10B50720FFF7BCFF10BD10B501
:1053F000FFF795FFFFF7ECFF1020FFF7B3FF10BD9D
:1054000070B5FFF7C8FF064601F0C9F90546054922
:1054100000F0FFFF04464FF07E5100F0C8FF70BD62
:1054200000100140CDCC8C3F08B54FF48050ADF852
:10543000000048208DF803006946BA48FBF70EFECD
:1054400008BD10B50024FFF7EFFF04E0601CC4B2F4
:10545000012000F07DF94FF48051B248FBF791FE36
:1054600008B1642CF2DB642C01DB012010BD0024A8
:1054700004E0601CC4B2012000F06AF94FF48051CE
:10548000A848FBF77EFE08B9F02CF2DBF02C01DB1C
:105490000120EBE70020E9E708B54FF48050ADF8B4
:1054A000000010208DF8030003208DF802006946EB
:1054B0009C48FBF7D3FD08BD10B5FFF7EDFF4FF497
:1054C00080519848FBF779FE40F2EE2000F040F959
:1054D0004FF480519348FBF76EFE0F2000F038F92F
:1054E00010BD08B501211020FCF774F84FF480506E
:1054F000ADF8000010208DF8030003208DF80200A5
:1055000069468848FBF7AAFD08BD10B5FFF7E9FF1B
:105510004FF480518348FBF74EFEFFF7CDFFFFF7B6
:1055200090FF10BD10B5FFF7B7FF4FF480517D48D5
:10553000FBF743FE0A2000F00BF9FFF775FF4FF46D
:1055400080517848FBF71DFE012801D1012400E0BD
:1055500000242D2000F0FCF8204610BD70B5002678
:10556000002408E0FFF7DEFF054605FA04F03043AB
:10557000C6B2601CC4B2082CF4DB304670BD70B5F6
:105580000446FFF789FF002526E004F001066410B9
:1055900086B14FF480516348FBF70FFE082000F0FE
:1055A000D7F84FF480515F48FBF705FE3A2000F032
:1055B000CFF80FE04FF480515A48FBF7FEFD46202C
:1055C00000F0C6F84FF480515648FBF7F4FD022076
:1055D00000F0BEF8681CC5B2082DD6DB70BD10B552
:1055E000FFF76AFFFFF72DFFCC20FFF7C8FF10BDC4
:1055F00010B5FFF761FFFFF724FF5520FFF7BFFF4E
:1056000010BD2DE9F05FFFF7EAFF4420FFF7B7FF79
:10561000FFF7E5FFBE20FFF7B2FFFFF79FFF8346CE
:10562000FFF79CFF82464FEA0A2004B244EA0B04CB
:10563000002C0DDAE043401C01F0B6F807460022CA
:10564000394B00F0CBFF054601F030F981460BE005
:10565000204601F0A9F807460022334B00F0BEFFB8
:10566000054601F023F981464846BDE8F09F70B534
:1056700005463320FFF783FF002404E0FFF76EFFA9
:105680002855601CC4B2082CF8DB70BD2DE9FC5F06
:105690000646FFF7ADFF002404E0305DFFF76FFF23
:1056A000601CC4B2082CF8DB4420FFF768FFFFF74A
:1056B0009FFF002404E0305DFFF761FF601CC4B26F
:1056C000082CF8DBBE20FFF75AFFFFF747FF8346A1
:1056D000FFF744FF81464FEA092005B245EA0B0572
:1056E000002D0EDAE843401C01F05EF80746002268
:1056F0000D4B00F073FFCDE9000101F0D7F88246B1
:105700000CE0284601F050F807460022064B00F056
:1057100065FFCDE9000101F0C9F882465046BDE8B9
:10572000FC9F0000001001400000B03F1B480068D3
:1057300040F0807019490860002019494860084607
:10574000006840F0010008607047154840687047E5
:1057500031B50024FFF7EAFF124800681249B0FB98
:10576000F1F0009900FB01F500BFFFF7EEFF0346E3
:1057700011E0FFF7EAFF02469A420CD09A4202D9A2
:10578000D01A044403E0C3F1FF301044044413462C
:10579000AC4200D300E0ECE700BF38BDFCED00E018
:1057A000001000E00000002040420F000EB500F0A5
:1057B00081F801210846FBF70DFF00210846FBF7A1
:1057C00063FD0120019000208DF808000C208DF869
:1057D000090001A8FBF75CF80D210220FBF754FD3E
:1057E0004FF40050019008208DF8090001A8FBF744
:1057F0004FF817208DF8000002208DF801000320DB
:105800008DF8020001208DF803006846FAF7A1FD2B
:1058100028208DF8000002208DF8010001208DF86D
:1058200002008DF803006846FAF793FD0EBD10B52F
:105830000A2000F048FD01211B48FBF7A2FC0128CB
:105840000FD10A2000F03FFD18480068042803D15A
:1058500001201649086004E014480068401C134900
:1058600008600120FBF78BF810BD10B50A2000F08E
:105870002AFD4FF400510E48FBF783FC01280ED19E
:105880000A2000F020FD0948006818B904200749E3
:10589000086004E005480068401E044908604FF4B1
:1058A0000050FBF76CF810BD000801408400002098
:1058B0000010014008B501210420FBF78BFE0120F8
:1058C000ADF8000048208DF8030069464348FBF717
:1058D000C5FB01211020FBF77DFE4FF40050ADF811
:1058E000000028208DF8030069463D48FBF7B6FB11
:1058F00008BD10B501213948FBF743FC01280FD141
:105900000A2000F0E0FC37480068062803D1012097
:105910003449086004E033480068401C314908609D
:105920004FF400512E48FBF72CFC01280ED10A2021
:1059300000F0C9FC2B48006818B904202949086008
:1059400004E028480068401E264908602548006891
:10595000062839D2DFE800F0031018202830002094
:10596000214908602149C1F8B4011F490831086084
:105970001E49C1F8BC012FE000F099F840F2DC515B
:105980001B48FCF759FD27E000F091F84FF49661B1
:105990001748FCF751FD1FE000F089F84FF46171E2
:1059A0001348FCF749FD17E000F081F84FF4167139
:1059B0000F48FCF741FD0FE000F079F84FF49671C5
:1059C0000B48FCF739FD07E000F071F84FF47A71ED
:1059D0000748FCF731FD00BF00BF10BD00080140C3
:1059E0000010014084000020B0812142008021424B
:1059F0000034014008B501210820FBF7EBFD202011
:105A0000ADF8000010208DF8030003208DF802008F
:105A10006946FE48FBF722FB0120ADF8000069460D
:105A2000FA48FBF71BFB0220ADF800006946F74877
:105A3000FBF714FB2021F548FBF7BDFB0121F348E0
:105A4000FBF7B9FB0221F148FBF7B5FB08BD08B530
:105A500001210820FBF7BEFD4FF47040ADF80000B7
:105A600010208DF8030003208DF802006946E748F6
:105A7000FBF7F4FA4FF47041E448FBF79CFB08BDD8
:105A800008B501210420FBF7A5FD0420ADF80000B6
:105A900010208DF8030003208DF802006946DC48D1
:105AA000FBF7DCFA0421DA48FBF785FB08BD002090
:105AB000D84908600120D849C1F8B4010020D5496F
:105AC000083108600120D449C1F8BC0170470120A9
:105AD000D04908600020D049C1F8B4010120CD4967
